{"abi":[{"type":"constructor","inputs":[{"name":"tokenAddr","type":"address","internalType":"address"}],"stateMutability":"nonpayable"},{"type":"function","name":"changeModel","inputs":[{"name":"m","type":"uint8","internalType":"enum EnergyBilling.PaymentModel"}],"outputs":[],"stateMutability":"nonpayable"},{"type":"function","name":"consume","inputs":[{"name":"user","type":"address","internalType":"address"},{"name":"kwh","type":"uint256","internalType":"uint256"}],"outputs":[],"stateMutability":"nonpayable"},{"type":"function","name":"getModel","inputs":[{"name":"u","type":"address","internalType":"address"}],"outputs":[{"name":"","type":"uint8","internalType":"enum EnergyBilling.PaymentModel"}],"stateMutability":"view"},{"type":"function","name":"owner","inputs":[],"outputs":[{"name":"","type":"address","internalType":"address"}],"stateMutability":"view"},{"type":"function","name":"payBill","inputs":[],"outputs":[],"stateMutability":"payable"},{"type":"function","name":"pricePerKWH","inputs":[],"outputs":[{"name":"","type":"uint256","internalType":"uint256"}],"stateMutability":"view"},{"type":"function","name":"setModel","inputs":[{"name":"m","type":"uint8","internalType":"enum EnergyBilling.PaymentModel"}],"outputs":[],"stateMutability":"nonpayable"},{"type":"function","name":"setPricePerKWH","inputs":[{"name":"p","type":"uint256","internalType":"uint256"}],"outputs":[],"stateMutability":"nonpayable"},{"type":"function","name":"token","inputs":[],"outputs":[{"name":"","type":"address","internalType":"contract KWHToken"}],"stateMutability":"view"},{"type":"function","name":"users","inputs":[{"name":"","type":"address","internalType":"address"}],"outputs":[{"name":"model","type":"uint8","internalType":"enum EnergyBilling.PaymentModel"},{"name":"pendingConsumption","type":"uint256","internalType":"uint256"}],"stateMutability":"view"},{"type":"event","name":"PriceUpdated","inputs":[{"name":"newPrice","type":"uint256","indexed":false,"internalType":"uint256"}],"anonymous":false}],"bytecode":{"object":"0x60c060405265886c98b76000600155348015610019575f80fd5b50604051611436380380611436833981810160405281019061003b9190610107565b8073ffffffffffffffffffffffffffffffffffffffff1660808173ffffffffffffffffffffffffffffffffffffffff16815250503373ffffffffffffffffffffffffffffffffffffffff1660a08173ffffffffffffffffffffffffffffffffffffffff168152505050610132565b5f80fd5b5f73ffffffffffffffffffffffffffffffffffffffff82169050919050565b5f6100d6826100ad565b9050919050565b6100e6816100cc565b81146100f0575f80fd5b50565b5f81519050610101816100dd565b92915050565b5f6020828403121561011c5761011b6100a9565b5b5f610129848285016100f3565b91505092915050565b60805160a0516112ce6101685f395f81816102370152818161071f0152610a6401525f81816103520152610b0c01526112ce5ff3fe608060405260043610610090575f3560e01c80638da5cb5b116100585780638da5cb5b1461013e578063a87430ba14610168578063e2187218146101a5578063e225879d146101e1578063fc0c546a1461020b57610090565b8063224b5c72146100945780633054c62f146100bc578063613988c8146100e45780637a7816581461010c5780637d7aeda514610116575b5f80fd5b34801561009f575f80fd5b506100ba60048036038101906100b59190610bbf565b610235565b005b3480156100c7575f80fd5b506100e260048036038101906100dd9190610c20565b6104ed565b005b3480156100ef575f80fd5b5061010a60048036038101906101059190610c4b565b61071d565b005b61011461082e565b005b348015610121575f80fd5b5061013c60048036038101906101379190610c20565b61094a565b005b348015610149575f80fd5b50610152610a62565b60405161015f9190610c85565b60405180910390f35b348015610173575f80fd5b5061018e60048036038101906101899190610c9e565b610a86565b60405161019c929190610d4b565b60405180910390f35b3480156101b0575f80fd5b506101cb60048036038101906101c69190610c9e565b610ab1565b6040516101d89190610d72565b60405180910390f35b3480156101ec575f80fd5b506101f5610b04565b6040516102029190610d8b565b60405180910390f35b348015610216575f80fd5b5061021f610b0a565b60405161022c9190610dff565b60405180910390f35b7f000000000000000000000000000000000000000000000000000000000000000073ffffffffffffffffffffffffffffffffffffffff163373ffffffffffffffffffffffffffffffffffffffff16146102c3576040517f08c379a00000000000000000000000000000000000000000000000000000000081526004016102ba90610e72565b60405180910390fd5b5f670de0b6b3a7640000826102d89190610ebd565b9050600160028111156102ee576102ed610cc9565b5b5f808573ffffffffffffffffffffffffffffffffffffffff1673ffffffffffffffffffffffffffffffffffffffff1681526020019081526020015f205f015f9054906101000a900460ff16600281111561034b5761034a610cc9565b5b036103dd577f000000000000000000000000000000000000000000000000000000000000000073ffffffffffffffffffffffffffffffffffffffff166379cc679084836040518363ffffffff1660e01b81526004016103ab929190610efe565b5f604051808303815f87803b1580156103c2575f80fd5b505af11580156103d4573d5f803e3d5ffd5b505050506104e8565b6002808111156103f0576103ef610cc9565b5b5f808573ffffffffffffffffffffffffffffffffffffffff1673ffffffffffffffffffffffffffffffffffffffff1681526020019081526020015f205f015f9054906101000a900460ff16600281111561044d5761044c610cc9565b5b036104ac57815f808573ffffffffffffffffffffffffffffffffffffffff1673ffffffffffffffffffffffffffffffffffffffff1681526020019081526020015f206001015f8282546104a09190610f25565b925050819055506104e7565b6040517f08c379a00000000000000000000000000000000000000000000000000000000081526004016104de90610fa2565b60405180910390fd5b5b505050565b5f805f3373ffffffffffffffffffffffffffffffffffffffff1673ffffffffffffffffffffffffffffffffffffffff1681526020019081526020015f205f015f9054906101000a900460ff1690505f600281111561054e5761054d610cc9565b5b81600281111561056157610560610cc9565b5b036105a1576040517f08c379a00000000000000000000000000000000000000000000000000000000081526004016105989061100a565b60405180910390fd5b8160028111156105b4576105b3610cc9565b5b8160028111156105c7576105c6610cc9565b5b03610607576040517f08c379a00000000000000000000000000000000000000000000000000000000081526004016105fe90611072565b60405180910390fd5b60028081111561061a57610619610cc9565b5b81600281111561062d5761062c610cc9565b5b036106b4575f805f3373ffffffffffffffffffffffffffffffffffffffff1673ffffffffffffffffffffffffffffffffffffffff1681526020019081526020015f2060010154146106b3576040517f08c379a00000000000000000000000000000000000000000000000000000000081526004016106aa906110da565b60405180910390fd5b5b815f803373ffffffffffffffffffffffffffffffffffffffff1673ffffffffffffffffffffffffffffffffffffffff1681526020019081526020015f205f015f6101000a81548160ff0219169083600281111561071457610713610cc9565b5b02179055505050565b7f000000000000000000000000000000000000000000000000000000000000000073ffffffffffffffffffffffffffffffffffffffff163373ffffffffffffffffffffffffffffffffffffffff16146107ab576040517f08c379a00000000000000000000000000000000000000000000000000000000081526004016107a290610e72565b60405180910390fd5b5f81116107ed576040517f08c379a00000000000000000000000000000000000000000000000000000000081526004016107e490611142565b60405180910390fd5b806001819055507f66cbca4f3c64fecf1dcb9ce094abcf7f68c3450a1d4e3a8e917dd621edb4ebe0816040516108239190610d8b565b60405180910390a150565b5f6001545f803373ffffffffffffffffffffffffffffffffffffffff1673ffffffffffffffffffffffffffffffffffffffff1681526020019081526020015f206001015461087c9190610ebd565b90505f81116108c0576040517f08c379a00000000000000000000000000000000000000000000000000000000081526004016108b7906111aa565b60405180910390fd5b80341015610903576040517f08c379a00000000000000000000000000000000000000000000000000000000081526004016108fa90611212565b60405180910390fd5b5f805f3373ffffffffffffffffffffffffffffffffffffffff1673ffffffffffffffffffffffffffffffffffffffff1681526020019081526020015f206001018190555050565b5f600281111561095d5761095c610cc9565b5b5f803373ffffffffffffffffffffffffffffffffffffffff1673ffffffffffffffffffffffffffffffffffffffff1681526020019081526020015f205f015f9054906101000a900460ff1660028111156109ba576109b9610cc9565b5b146109fa576040517f08c379a00000000000000000000000000000000000000000000000000000000081526004016109f19061127a565b60405180910390fd5b805f803373ffffffffffffffffffffffffffffffffffffffff1673ffffffffffffffffffffffffffffffffffffffff1681526020019081526020015f205f015f6101000a81548160ff02191690836002811115610a5a57610a59610cc9565b5b021790555050565b7f000000000000000000000000000000000000000000000000000000000000000081565b5f602052805f5260405f205f91509050805f015f9054906101000a900460ff16908060010154905082565b5f805f8373ffffffffffffffffffffffffffffffffffffffff1673ffffffffffffffffffffffffffffffffffffffff1681526020019081526020015f205f015f9054906101000a900460ff169050919050565b60015481565b7f000000000000000000000000000000000000000000000000000000000000000081565b5f80fd5b5f73ffffffffffffffffffffffffffffffffffffffff82169050919050565b5f610b5b82610b32565b9050919050565b610b6b81610b51565b8114610b75575f80fd5b50565b5f81359050610b8681610b62565b92915050565b5f819050919050565b610b9e81610b8c565b8114610ba8575f80fd5b50565b5f81359050610bb981610b95565b92915050565b5f8060408385031215610bd557610bd4610b2e565b5b5f610be285828601610b78565b9250506020610bf385828601610bab565b9150509250929050565b60038110610c09575f80fd5b50565b5f81359050610c1a81610bfd565b92915050565b5f60208284031215610c3557610c34610b2e565b5b5f610c4284828501610c0c565b91505092915050565b5f60208284031215610c6057610c5f610b2e565b5b5f610c6d84828501610bab565b91505092915050565b610c7f81610b51565b82525050565b5f602082019050610c985f830184610c76565b92915050565b5f60208284031215610cb357610cb2610b2e565b5b5f610cc084828501610b78565b91505092915050565b7f4e487b71000000000000000000000000000000000000000000000000000000005f52602160045260245ffd5b60038110610d0757610d06610cc9565b5b50565b5f819050610d1782610cf6565b919050565b5f610d2682610d0a565b9050919050565b610d3681610d1c565b82525050565b610d4581610b8c565b82525050565b5f604082019050610d5e5f830185610d2d565b610d6b6020830184610d3c565b9392505050565b5f602082019050610d855f830184610d2d565b92915050565b5f602082019050610d9e5f830184610d3c565b92915050565b5f819050919050565b5f610dc7610dc2610dbd84610b32565b610da4565b610b32565b9050919050565b5f610dd882610dad565b9050919050565b5f610de982610dce565b9050919050565b610df981610ddf565b82525050565b5f602082019050610e125f830184610df0565b92915050565b5f82825260208201905092915050565b7f6e6f74206f776e657200000000000000000000000000000000000000000000005f82015250565b5f610e5c600983610e18565b9150610e6782610e28565b602082019050919050565b5f6020820190508181035f830152610e8981610e50565b9050919050565b7f4e487b71000000000000000000000000000000000000000000000000000000005f52601160045260245ffd5b5f610ec782610b8c565b9150610ed283610b8c565b9250828202610ee081610b8c565b91508282048414831517610ef757610ef6610e90565b5b5092915050565b5f604082019050610f115f830185610c76565b610f1e6020830184610d3c565b9392505050565b5f610f2f82610b8c565b9150610f3a83610b8c565b9250828201905080821115610f5257610f51610e90565b5b92915050565b7f7573657220756e736574000000000000000000000000000000000000000000005f82015250565b5f610f8c600a83610e18565b9150610f9782610f58565b602082019050919050565b5f6020820190508181035f830152610fb981610f80565b9050919050565b7f6e6f7420736574207965740000000000000000000000000000000000000000005f82015250565b5f610ff4600b83610e18565b9150610fff82610fc0565b602082019050919050565b5f6020820190508181035f83015261102181610fe8565b9050919050565b7f6e6f206368616e676500000000000000000000000000000000000000000000005f82015250565b5f61105c600983610e18565b915061106782611028565b602082019050919050565b5f6020820190508181035f83015261108981611050565b9050919050565b7f6f75747374616e64696e6720636f6e73756d7074696f6e0000000000000000005f82015250565b5f6110c4601783610e18565b91506110cf82611090565b602082019050919050565b5f6020820190508181035f8301526110f1816110b8565b9050919050565b7f70726963652030000000000000000000000000000000000000000000000000005f82015250565b5f61112c600783610e18565b9150611137826110f8565b602082019050919050565b5f6020820190508181035f83015261115981611120565b9050919050565b7f6e6f7468696e67206475650000000000000000000000000000000000000000005f82015250565b5f611194600b83610e18565b915061119f82611160565b602082019050919050565b5f6020820190508181035f8301526111c181611188565b9050919050565b7f6e6f7420656e6f756768204554480000000000000000000000000000000000005f82015250565b5f6111fc600e83610e18565b9150611207826111c8565b602082019050919050565b5f6020820190508181035f830152611229816111f0565b9050919050565b7f616c7265616479207365740000000000000000000000000000000000000000005f82015250565b5f611264600b83610e18565b915061126f82611230565b602082019050919050565b5f6020820190508181035f83015261129181611258565b905091905056fea2646970667358221220d77eb7971664116fe4bc570622de40cc69a515eff7b620227f0515e1ba350bd964736f6c634300081a0033","linkReferences":{}},"methodIdentifiers":{"changeModel(uint8)":"3054c62f","consume(address,uint256)":"224b5c72","getModel(address)":"e2187218","owner()":"8da5cb5b","payBill()":"7a781658","pricePerKWH()":"e225879d","setModel(uint8)":"7d7aeda5","setPricePerKWH(uint256)":"613988c8","token()":"fc0c546a","users(address)":"a87430ba"},"id":23}