{"abi":[{"type":"constructor","inputs":[{"name":"tokenAddr","type":"address","internalType":"address"}],"stateMutability":"nonpayable"},{"type":"function","name":"consume","inputs":[{"name":"user","type":"address","internalType":"address"},{"name":"kwh","type":"uint256","internalType":"uint256"}],"outputs":[],"stateMutability":"nonpayable"},{"type":"function","name":"getModel","inputs":[{"name":"u","type":"address","internalType":"address"}],"outputs":[{"name":"","type":"uint8","internalType":"enum EnergyBilling.PaymentModel"}],"stateMutability":"view"},{"type":"function","name":"owner","inputs":[],"outputs":[{"name":"","type":"address","internalType":"address"}],"stateMutability":"view"},{"type":"function","name":"payBill","inputs":[],"outputs":[],"stateMutability":"payable"},{"type":"function","name":"setModel","inputs":[{"name":"m","type":"uint8","internalType":"enum EnergyBilling.PaymentModel"}],"outputs":[],"stateMutability":"nonpayable"},{"type":"function","name":"token","inputs":[],"outputs":[{"name":"","type":"address","internalType":"contract KWHToken"}],"stateMutability":"view"},{"type":"function","name":"users","inputs":[{"name":"","type":"address","internalType":"address"}],"outputs":[{"name":"model","type":"uint8","internalType":"enum EnergyBilling.PaymentModel"},{"name":"pendingConsumption","type":"uint256","internalType":"uint256"}],"stateMutability":"view"}],"bytecode":{"object":"0x60c060405234801561000f575f80fd5b50604051610e65380380610e65833981810160405281019061003191906100fd565b8073ffffffffffffffffffffffffffffffffffffffff1660808173ffffffffffffffffffffffffffffffffffffffff16815250503373ffffffffffffffffffffffffffffffffffffffff1660a08173ffffffffffffffffffffffffffffffffffffffff168152505050610128565b5f80fd5b5f73ffffffffffffffffffffffffffffffffffffffff82169050919050565b5f6100cc826100a3565b9050919050565b6100dc816100c2565b81146100e6575f80fd5b50565b5f815190506100f7816100d3565b92915050565b5f602082840312156101125761011161009f565b5b5f61011f848285016100e9565b91505092915050565b60805160a051610d0e6101575f395f818161019c015261068e01525f81816102b701526107300152610d0e5ff3fe60806040526004361061006f575f3560e01c80638da5cb5b1161004d5780638da5cb5b146100cd578063a87430ba146100f7578063e218721814610134578063fc0c546a146101705761006f565b8063224b5c72146100735780637a7816581461009b5780637d7aeda5146100a5575b5f80fd5b34801561007e575f80fd5b50610099600480360381019061009491906107e3565b61019a565b005b6100a3610452565b005b3480156100b0575f80fd5b506100cb60048036038101906100c69190610844565b610574565b005b3480156100d8575f80fd5b506100e161068c565b6040516100ee919061087e565b60405180910390f35b348015610102575f80fd5b5061011d60048036038101906101189190610897565b6106b0565b60405161012b929190610944565b60405180910390f35b34801561013f575f80fd5b5061015a60048036038101906101559190610897565b6106db565b604051610167919061096b565b60405180910390f35b34801561017b575f80fd5b5061018461072e565b60405161019191906109df565b60405180910390f35b7f000000000000000000000000000000000000000000000000000000000000000073ffffffffffffffffffffffffffffffffffffffff163373ffffffffffffffffffffffffffffffffffffffff1614610228576040517f08c379a000000000000000000000000000000000000000000000000000000000815260040161021f90610a52565b60405180910390fd5b5f670de0b6b3a76400008261023d9190610a9d565b905060016002811115610253576102526108c2565b5b5f808573ffffffffffffffffffffffffffffffffffffffff1673ffffffffffffffffffffffffffffffffffffffff1681526020019081526020015f205f015f9054906101000a900460ff1660028111156102b0576102af6108c2565b5b03610342577f000000000000000000000000000000000000000000000000000000000000000073ffffffffffffffffffffffffffffffffffffffff166379cc679084836040518363ffffffff1660e01b8152600401610310929190610ade565b5f604051808303815f87803b158015610327575f80fd5b505af1158015610339573d5f803e3d5ffd5b5050505061044d565b600280811115610355576103546108c2565b5b5f808573ffffffffffffffffffffffffffffffffffffffff1673ffffffffffffffffffffffffffffffffffffffff1681526020019081526020015f205f015f9054906101000a900460ff1660028111156103b2576103b16108c2565b5b0361041157815f808573ffffffffffffffffffffffffffffffffffffffff1673ffffffffffffffffffffffffffffffffffffffff1681526020019081526020015f206001015f8282546104059190610b05565b9250508190555061044c565b6040517f08c379a000000000000000000000000000000000000000000000000000000000815260040161044390610b82565b60405180910390fd5b5b505050565b5f670de0b6b3a76400005f803373ffffffffffffffffffffffffffffffffffffffff1673ffffffffffffffffffffffffffffffffffffffff1681526020019081526020015f20600101546104a69190610a9d565b90505f81116104ea576040517f08c379a00000000000000000000000000000000000000000000000000000000081526004016104e190610bea565b60405180910390fd5b8034101561052d576040517f08c379a000000000000000000000000000000000000000000000000000000000815260040161052490610c52565b60405180910390fd5b5f805f3373ffffffffffffffffffffffffffffffffffffffff1673ffffffffffffffffffffffffffffffffffffffff1681526020019081526020015f206001018190555050565b5f6002811115610587576105866108c2565b5b5f803373ffffffffffffffffffffffffffffffffffffffff1673ffffffffffffffffffffffffffffffffffffffff1681526020019081526020015f205f015f9054906101000a900460ff1660028111156105e4576105e36108c2565b5b14610624576040517f08c379a000000000000000000000000000000000000000000000000000000000815260040161061b90610cba565b60405180910390fd5b805f803373ffffffffffffffffffffffffffffffffffffffff1673ffffffffffffffffffffffffffffffffffffffff1681526020019081526020015f205f015f6101000a81548160ff02191690836002811115610684576106836108c2565b5b021790555050565b7f000000000000000000000000000000000000000000000000000000000000000081565b5f602052805f5260405f205f91509050805f015f9054906101000a900460ff16908060010154905082565b5f805f8373ffffffffffffffffffffffffffffffffffffffff1673ffffffffffffffffffffffffffffffffffffffff1681526020019081526020015f205f015f9054906101000a900460ff169050919050565b7f000000000000000000000000000000000000000000000000000000000000000081565b5f80fd5b5f73ffffffffffffffffffffffffffffffffffffffff82169050919050565b5f61077f82610756565b9050919050565b61078f81610775565b8114610799575f80fd5b50565b5f813590506107aa81610786565b92915050565b5f819050919050565b6107c2816107b0565b81146107cc575f80fd5b50565b5f813590506107dd816107b9565b92915050565b5f80604083850312156107f9576107f8610752565b5b5f6108068582860161079c565b9250506020610817858286016107cf565b9150509250929050565b6003811061082d575f80fd5b50565b5f8135905061083e81610821565b92915050565b5f6020828403121561085957610858610752565b5b5f61086684828501610830565b91505092915050565b61087881610775565b82525050565b5f6020820190506108915f83018461086f565b92915050565b5f602082840312156108ac576108ab610752565b5b5f6108b98482850161079c565b91505092915050565b7f4e487b71000000000000000000000000000000000000000000000000000000005f52602160045260245ffd5b60038110610900576108ff6108c2565b5b50565b5f819050610910826108ef565b919050565b5f61091f82610903565b9050919050565b61092f81610915565b82525050565b61093e816107b0565b82525050565b5f6040820190506109575f830185610926565b6109646020830184610935565b9392505050565b5f60208201905061097e5f830184610926565b92915050565b5f819050919050565b5f6109a76109a261099d84610756565b610984565b610756565b9050919050565b5f6109b88261098d565b9050919050565b5f6109c9826109ae565b9050919050565b6109d9816109bf565b82525050565b5f6020820190506109f25f8301846109d0565b92915050565b5f82825260208201905092915050565b7f6e6f74206f776e657200000000000000000000000000000000000000000000005f82015250565b5f610a3c6009836109f8565b9150610a4782610a08565b602082019050919050565b5f6020820190508181035f830152610a6981610a30565b9050919050565b7f4e487b71000000000000000000000000000000000000000000000000000000005f52601160045260245ffd5b5f610aa7826107b0565b9150610ab2836107b0565b9250828202610ac0816107b0565b91508282048414831517610ad757610ad6610a70565b5b5092915050565b5f604082019050610af15f83018561086f565b610afe6020830184610935565b9392505050565b5f610b0f826107b0565b9150610b1a836107b0565b9250828201905080821115610b3257610b31610a70565b5b92915050565b7f7573657220756e736574000000000000000000000000000000000000000000005f82015250565b5f610b6c600a836109f8565b9150610b7782610b38565b602082019050919050565b5f6020820190508181035f830152610b9981610b60565b9050919050565b7f6e6f7468696e67206475650000000000000000000000000000000000000000005f82015250565b5f610bd4600b836109f8565b9150610bdf82610ba0565b602082019050919050565b5f6020820190508181035f830152610c0181610bc8565b9050919050565b7f6e6f7420656e6f756768204554480000000000000000000000000000000000005f82015250565b5f610c3c600e836109f8565b9150610c4782610c08565b602082019050919050565b5f6020820190508181035f830152610c6981610c30565b9050919050565b7f616c7265616479207365740000000000000000000000000000000000000000005f82015250565b5f610ca4600b836109f8565b9150610caf82610c70565b602082019050919050565b5f6020820190508181035f830152610cd181610c98565b905091905056fea26469706673582212208edcb8c3dac785baa9322586c1105e2a404f07aac76470d78277a138e305257f64736f6c634300081a0033","linkReferences":{}},"methodIdentifiers":{"consume(address,uint256)":"224b5c72","getModel(address)":"e2187218","owner()":"8da5cb5b","payBill()":"7a781658","setModel(uint8)":"7d7aeda5","token()":"fc0c546a","users(address)":"a87430ba"},"id":26}