{"abi":[{"type":"constructor","inputs":[{"name":"simulator","type":"address","internalType":"address"},{"name":"initialOwner","type":"address","internalType":"address"}],"stateMutability":"nonpayable"},{"type":"function","name":"allowance","inputs":[{"name":"owner","type":"address","internalType":"address"},{"name":"spender","type":"address","internalType":"address"}],"outputs":[{"name":"","type":"uint256","internalType":"uint256"}],"stateMutability":"view"},{"type":"function","name":"approve","inputs":[{"name":"spender","type":"address","internalType":"address"},{"name":"value","type":"uint256","internalType":"uint256"}],"outputs":[{"name":"","type":"bool","internalType":"bool"}],"stateMutability":"nonpayable"},{"type":"function","name":"balanceOf","inputs":[{"name":"account","type":"address","internalType":"address"}],"outputs":[{"name":"","type":"uint256","internalType":"uint256"}],"stateMutability":"view"},{"type":"function","name":"burn","inputs":[{"name":"value","type":"uint256","internalType":"uint256"}],"outputs":[],"stateMutability":"nonpayable"},{"type":"function","name":"burnFrom","inputs":[{"name":"account","type":"address","internalType":"address"},{"name":"value","type":"uint256","internalType":"uint256"}],"outputs":[],"stateMutability":"nonpayable"},{"type":"function","name":"buyTokens","inputs":[],"outputs":[],"stateMutability":"payable"},{"type":"function","name":"decimals","inputs":[],"outputs":[{"name":"","type":"uint8","internalType":"uint8"}],"stateMutability":"view"},{"type":"function","name":"energySimulator","inputs":[],"outputs":[{"name":"","type":"address","internalType":"contract EnergySimulator"}],"stateMutability":"view"},{"type":"function","name":"fixedPricePerKWH","inputs":[],"outputs":[{"name":"","type":"uint256","internalType":"uint256"}],"stateMutability":"view"},{"type":"function","name":"fluctuatingPricePerKWH","inputs":[],"outputs":[{"name":"","type":"uint256","internalType":"uint256"}],"stateMutability":"view"},{"type":"function","name":"getUserDetails","inputs":[{"name":"acc","type":"address","internalType":"address"}],"outputs":[{"name":"","type":"tuple","internalType":"struct KWHToken.User","components":[{"name":"paymentModel","type":"uint8","internalType":"enum KWHToken.PaymentModel"},{"name":"consumption","type":"uint256","internalType":"uint256"},{"name":"pendingBill","type":"uint256","internalType":"uint256"},{"name":"generatedKWH","type":"uint256","internalType":"uint256"}]}],"stateMutability":"view"},{"type":"function","name":"name","inputs":[],"outputs":[{"name":"","type":"string","internalType":"string"}],"stateMutability":"view"},{"type":"function","name":"owner","inputs":[],"outputs":[{"name":"","type":"address","internalType":"address"}],"stateMutability":"view"},{"type":"function","name":"payBill","inputs":[],"outputs":[],"stateMutability":"payable"},{"type":"function","name":"registerUser","inputs":[{"name":"model","type":"uint8","internalType":"uint8"}],"outputs":[],"stateMutability":"nonpayable"},{"type":"function","name":"renounceOwnership","inputs":[],"outputs":[],"stateMutability":"nonpayable"},{"type":"function","name":"rewardTokens","inputs":[{"name":"prosumer","type":"address","internalType":"address"},{"name":"kwh","type":"uint256","internalType":"uint256"}],"outputs":[],"stateMutability":"nonpayable"},{"type":"function","name":"setFixedPricePerKWH","inputs":[{"name":"newPrice","type":"uint256","internalType":"uint256"}],"outputs":[],"stateMutability":"nonpayable"},{"type":"function","name":"setFluctuatingPricePerKWH","inputs":[{"name":"newPrice","type":"uint256","internalType":"uint256"}],"outputs":[],"stateMutability":"nonpayable"},{"type":"function","name":"simulateConsumption","inputs":[],"outputs":[],"stateMutability":"nonpayable"},{"type":"function","name":"symbol","inputs":[],"outputs":[{"name":"","type":"string","internalType":"string"}],"stateMutability":"view"},{"type":"function","name":"totalSupply","inputs":[],"outputs":[{"name":"","type":"uint256","internalType":"uint256"}],"stateMutability":"view"},{"type":"function","name":"transfer","inputs":[{"name":"to","type":"address","internalType":"address"},{"name":"value","type":"uint256","internalType":"uint256"}],"outputs":[{"name":"","type":"bool","internalType":"bool"}],"stateMutability":"nonpayable"},{"type":"function","name":"transferFrom","inputs":[{"name":"from","type":"address","internalType":"address"},{"name":"to","type":"address","internalType":"address"},{"name":"value","type":"uint256","internalType":"uint256"}],"outputs":[{"name":"","type":"bool","internalType":"bool"}],"stateMutability":"nonpayable"},{"type":"function","name":"transferOwnership","inputs":[{"name":"newOwner","type":"address","internalType":"address"}],"outputs":[],"stateMutability":"nonpayable"},{"type":"function","name":"users","inputs":[{"name":"","type":"address","internalType":"address"}],"outputs":[{"name":"paymentModel","type":"uint8","internalType":"enum KWHToken.PaymentModel"},{"name":"consumption","type":"uint256","internalType":"uint256"},{"name":"pendingBill","type":"uint256","internalType":"uint256"},{"name":"generatedKWH","type":"uint256","internalType":"uint256"}],"stateMutability":"view"},{"type":"event","name":"Approval","inputs":[{"name":"owner","type":"address","indexed":true,"internalType":"address"},{"name":"spender","type":"address","indexed":true,"internalType":"address"},{"name":"value","type":"uint256","indexed":false,"internalType":"uint256"}],"anonymous":false},{"type":"event","name":"BillGenerated","inputs":[{"name":"user","type":"address","indexed":true,"internalType":"address"},{"name":"weiAmount","type":"uint256","indexed":false,"internalType":"uint256"}],"anonymous":false},{"type":"event","name":"BillPaid","inputs":[{"name":"user","type":"address","indexed":true,"internalType":"address"},{"name":"weiAmount","type":"uint256","indexed":false,"internalType":"uint256"}],"anonymous":false},{"type":"event","name":"KWHConsumed","inputs":[{"name":"user","type":"address","indexed":true,"internalType":"address"},{"name":"kwh","type":"uint256","indexed":false,"internalType":"uint256"}],"anonymous":false},{"type":"event","name":"KWHGenerated","inputs":[{"name":"user","type":"address","indexed":true,"internalType":"address"},{"name":"kwh","type":"uint256","indexed":false,"internalType":"uint256"}],"anonymous":false},{"type":"event","name":"OwnershipTransferred","inputs":[{"name":"previousOwner","type":"address","indexed":true,"internalType":"address"},{"name":"newOwner","type":"address","indexed":true,"internalType":"address"}],"anonymous":false},{"type":"event","name":"PriceUpdated","inputs":[{"name":"priceType","type":"string","indexed":false,"internalType":"string"},{"name":"newValue","type":"uint256","indexed":false,"internalType":"uint256"}],"anonymous":false},{"type":"event","name":"TokensBought","inputs":[{"name":"user","type":"address","indexed":true,"internalType":"address"},{"name":"amount","type":"uint256","indexed":false,"internalType":"uint256"}],"anonymous":false},{"type":"event","name":"TokensBurned","inputs":[{"name":"user","type":"address","indexed":true,"internalType":"address"},{"name":"amount","type":"uint256","indexed":false,"internalType":"uint256"}],"anonymous":false},{"type":"event","name":"TokensRewarded","inputs":[{"name":"user","type":"address","indexed":true,"internalType":"address"},{"name":"amount","type":"uint256","indexed":false,"internalType":"uint256"}],"anonymous":false},{"type":"event","name":"Transfer","inputs":[{"name":"from","type":"address","indexed":true,"internalType":"address"},{"name":"to","type":"address","indexed":true,"internalType":"address"},{"name":"value","type":"uint256","indexed":false,"internalType":"uint256"}],"anonymous":false},{"type":"event","name":"UserRegistered","inputs":[{"name":"user","type":"address","indexed":true,"internalType":"address"},{"name":"model","type":"uint8","indexed":false,"internalType":"enum KWHToken.PaymentModel"}],"anonymous":false},{"type":"error","name":"ERC20InsufficientAllowance","inputs":[{"name":"spender","type":"address","internalType":"address"},{"name":"allowance","type":"uint256","internalType":"uint256"},{"name":"needed","type":"uint256","internalType":"uint256"}]},{"type":"error","name":"ERC20InsufficientBalance","inputs":[{"name":"sender","type":"address","internalType":"address"},{"name":"balance","type":"uint256","internalType":"uint256"},{"name":"needed","type":"uint256","internalType":"uint256"}]},{"type":"error","name":"ERC20InvalidApprover","inputs":[{"name":"approver","type":"address","internalType":"address"}]},{"type":"error","name":"ERC20InvalidReceiver","inputs":[{"name":"receiver","type":"address","internalType":"address"}]},{"type":"error","name":"ERC20InvalidSender","inputs":[{"name":"sender","type":"address","internalType":"address"}]},{"type":"error","name":"ERC20InvalidSpender","inputs":[{"name":"spender","type":"address","internalType":"address"}]},{"type":"error","name":"OwnableInvalidOwner","inputs":[{"name":"owner","type":"address","internalType":"address"}]},{"type":"error","name":"OwnableUnauthorizedAccount","inputs":[{"name":"account","type":"address","internalType":"address"}]}],"bytecode":{"object":"0x60a0604052655af3107a400060065565886c98b76000600755348015610023575f80fd5b5060405161330238038061330283398181016040528101906100459190610568565b806040518060400160405280601181526020017f4b696c6f77617474486f7572546f6b656e0000000000000000000000000000008152506040518060400160405280600381526020017f4b5748000000000000000000000000000000000000000000000000000000000081525081600390816100c191906107e0565b5080600490816100d191906107e0565b5050505f73ffffffffffffffffffffffffffffffffffffffff168173ffffffffffffffffffffffffffffffffffffffff1603610144575f6040517f1e4fbdf700000000000000000000000000000000000000000000000000000000815260040161013b91906108be565b60405180910390fd5b610153816101a960201b60201c565b508173ffffffffffffffffffffffffffffffffffffffff1660808173ffffffffffffffffffffffffffffffffffffffff16815250506101a2816969e10de76676d080000061026c60201b60201c565b5050610994565b5f60055f9054906101000a900473ffffffffffffffffffffffffffffffffffffffff1690508160055f6101000a81548173ffffffffffffffffffffffffffffffffffffffff021916908373ffffffffffffffffffffffffffffffffffffffff1602179055508173ffffffffffffffffffffffffffffffffffffffff168173ffffffffffffffffffffffffffffffffffffffff167f8be0079c531659141344cd1fd0a4f28419497f9722a3daafe3b4186f6b6457e060405160405180910390a35050565b5f73ffffffffffffffffffffffffffffffffffffffff168273ffffffffffffffffffffffffffffffffffffffff16036102dc575f6040517fec442f050000000000000000000000000000000000000000000000000000000081526004016102d391906108be565b60405180910390fd5b6102ed5f83836102f160201b60201c565b5050565b5f73ffffffffffffffffffffffffffffffffffffffff168373ffffffffffffffffffffffffffffffffffffffff1603610341578060025f8282546103359190610904565b9250508190555061040f565b5f805f8573ffffffffffffffffffffffffffffffffffffffff1673ffffffffffffffffffffffffffffffffffffffff1681526020019081526020015f20549050818110156103ca578381836040517fe450d38c0000000000000000000000000000000000000000000000000000000081526004016103c193929190610946565b60405180910390fd5b8181035f808673ffffffffffffffffffffffffffffffffffffffff1673ffffffffffffffffffffffffffffffffffffffff1681526020019081526020015f2081905550505b5f73ffffffffffffffffffffffffffffffffffffffff168273ffffffffffffffffffffffffffffffffffffffff1603610456578060025f82825403925050819055506104a0565b805f808473ffffffffffffffffffffffffffffffffffffffff1673ffffffffffffffffffffffffffffffffffffffff1681526020019081526020015f205f82825401925050819055505b8173ffffffffffffffffffffffffffffffffffffffff168373ffffffffffffffffffffffffffffffffffffffff167fddf252ad1be2c89b69c2b068fc378daa952ba7f163c4a11628f55a4df523b3ef836040516104fd919061097b565b60405180910390a3505050565b5f80fd5b5f73ffffffffffffffffffffffffffffffffffffffff82169050919050565b5f6105378261050e565b9050919050565b6105478161052d565b8114610551575f80fd5b50565b5f815190506105628161053e565b92915050565b5f806040838503121561057e5761057d61050a565b5b5f61058b85828601610554565b925050602061059c85828601610554565b9150509250929050565b5f81519050919050565b7f4e487b71000000000000000000000000000000000000000000000000000000005f52604160045260245ffd5b7f4e487b71000000000000000000000000000000000000000000000000000000005f52602260045260245ffd5b5f600282049050600182168061062157607f821691505b602082108103610634576106336105dd565b5b50919050565b5f819050815f5260205f209050919050565b5f6020601f8301049050919050565b5f82821b905092915050565b5f600883026106967fffffffffffffffffffffffffffffffffffffffffffffffffffffffffffffffff8261065b565b6106a0868361065b565b95508019841693508086168417925050509392505050565b5f819050919050565b5f819050919050565b5f6106e46106df6106da846106b8565b6106c1565b6106b8565b9050919050565b5f819050919050565b6106fd836106ca565b610711610709826106eb565b848454610667565b825550505050565b5f90565b610725610719565b6107308184846106f4565b505050565b5b81811015610753576107485f8261071d565b600181019050610736565b5050565b601f821115610798576107698161063a565b6107728461064c565b81016020851015610781578190505b61079561078d8561064c565b830182610735565b50505b505050565b5f82821c905092915050565b5f6107b85f198460080261079d565b1980831691505092915050565b5f6107d083836107a9565b9150826002028217905092915050565b6107e9826105a6565b67ffffffffffffffff811115610802576108016105b0565b5b61080c825461060a565b610817828285610757565b5f60209050601f831160018114610848575f8415610836578287015190505b61084085826107c5565b8655506108a7565b601f1984166108568661063a565b5f5b8281101561087d57848901518255600182019150602085019450602081019050610858565b8683101561089a5784890151610896601f8916826107a9565b8355505b6001600288020188555050505b505050505050565b6108b88161052d565b82525050565b5f6020820190506108d15f8301846108af565b92915050565b7f4e487b71000000000000000000000000000000000000000000000000000000005f52601160045260245ffd5b5f61090e826106b8565b9150610919836106b8565b9250828201905080821115610931576109306108d7565b5b92915050565b610940816106b8565b82525050565b5f6060820190506109595f8301866108af565b6109666020830185610937565b6109736040830184610937565b949350505050565b5f60208201905061098e5f830184610937565b92915050565b60805161294f6109b35f395f818161086e0152610e87015261294f5ff3fe608060405260043610610180575f3560e01c806381a4af15116100d0578063a9059cbb11610089578063d919d1d711610063578063d919d1d71461051d578063dd62ed3e14610547578063e89753b014610583578063f2fde38b146105ab57610180565b8063a9059cbb1461049b578063cc3d967b146104d7578063d0febe4c1461051357610180565b806381a4af15146103a05780638da5cb5b146103c85780638ddeb756146103f257806395d89b4114610408578063a590ddf314610432578063a87430ba1461045c57610180565b806342966c681161013d578063715018a611610117578063715018a61461033057806379cc6790146103465780637a7816581461036e5780637d9a65b51461037857610180565b806342966c68146102a2578063629e7f3a146102ca57806370a08231146102f457610180565b806302b8c8cd1461018457806306fdde03146101ac578063095ea7b3146101d657806318160ddd1461021257806323b872dd1461023c578063313ce56714610278575b5f80fd5b34801561018f575f80fd5b506101aa60048036038101906101a59190611e3c565b6105d3565b005b3480156101b7575f80fd5b506101c0610767565b6040516101cd9190611ed7565b60405180910390f35b3480156101e1575f80fd5b506101fc60048036038101906101f79190611f84565b6107f7565b6040516102099190611fdc565b60405180910390f35b34801561021d575f80fd5b50610226610819565b6040516102339190612004565b60405180910390f35b348015610247575f80fd5b50610262600480360381019061025d919061201d565b610822565b60405161026f9190611fdc565b60405180910390f35b348015610283575f80fd5b5061028c610850565b604051610299919061207c565b60405180910390f35b3480156102ad575f80fd5b506102c860048036038101906102c39190612095565b610858565b005b3480156102d5575f80fd5b506102de61086c565b6040516102eb919061211b565b60405180910390f35b3480156102ff575f80fd5b5061031a60048036038101906103159190612134565b610890565b6040516103279190612004565b60405180910390f35b34801561033b575f80fd5b506103446108d5565b005b348015610351575f80fd5b5061036c60048036038101906103679190611f84565b6108e8565b005b610376610908565b005b348015610383575f80fd5b5061039e60048036038101906103999190612095565b610b20565b005b3480156103ab575f80fd5b506103c660048036038101906103c19190611f84565b610bab565b005b3480156103d3575f80fd5b506103dc610d6a565b6040516103e9919061216e565b60405180910390f35b3480156103fd575f80fd5b50610406610d92565b005b348015610413575f80fd5b5061041c611092565b6040516104299190611ed7565b60405180910390f35b34801561043d575f80fd5b50610446611122565b6040516104539190612004565b60405180910390f35b348015610467575f80fd5b50610482600480360381019061047d9190612134565b611128565b60405161049294939291906121fa565b60405180910390f35b3480156104a6575f80fd5b506104c160048036038101906104bc9190611f84565b611160565b6040516104ce9190611fdc565b60405180910390f35b3480156104e2575f80fd5b506104fd60048036038101906104f89190612134565b611182565b60405161050a91906122ae565b60405180910390f35b61051b611230565b005b348015610528575f80fd5b50610531611469565b60405161053e9190612004565b60405180910390f35b348015610552575f80fd5b5061056d600480360381019061056891906122c7565b61146f565b60405161057a9190612004565b60405180910390f35b34801561058e575f80fd5b506105a960048036038101906105a49190612095565b6114f1565b005b3480156105b6575f80fd5b506105d160048036038101906105cc9190612134565b61157c565b005b6001808111156105e6576105e5612187565b5b60ff168160ff16111561062e576040517f08c379a00000000000000000000000000000000000000000000000000000000081526004016106259061234f565b60405180910390fd5b60405180608001604052808260ff16600181111561064f5761064e612187565b5b600181111561066157610660612187565b5b81526020015f81526020015f81526020015f81525060085f3373ffffffffffffffffffffffffffffffffffffffff1673ffffffffffffffffffffffffffffffffffffffff1681526020019081526020015f205f820151815f015f6101000a81548160ff021916908360018111156106db576106da612187565b5b02179055506020820151816001015560408201518160020155606082015181600301559050503373ffffffffffffffffffffffffffffffffffffffff167f8e18574f8a7333e6a87112742a55853a643e2f0550f4e1a3a2c3f1bb2994441d8260ff16600181111561074f5761074e612187565b5b60405161075c919061236d565b60405180910390a250565b606060038054610776906123b3565b80601f01602080910402602001604051908101604052809291908181526020018280546107a2906123b3565b80156107ed5780601f106107c4576101008083540402835291602001916107ed565b820191905f5260205f20905b8154815290600101906020018083116107d057829003601f168201915b5050505050905090565b5f80610801611600565b905061080e818585611607565b600191505092915050565b5f600254905090565b5f8061082c611600565b9050610839858285611619565b6108448585856116ac565b60019150509392505050565b5f6012905090565b610869610863611600565b8261179c565b50565b7f000000000000000000000000000000000000000000000000000000000000000081565b5f805f8373ffffffffffffffffffffffffffffffffffffffff1673ffffffffffffffffffffffffffffffffffffffff1681526020019081526020015f20549050919050565b6108dd61181b565b6108e65f6118a2565b565b6108fa826108f4611600565b83611619565b610904828261179c565b5050565b5f60085f3373ffffffffffffffffffffffffffffffffffffffff1673ffffffffffffffffffffffffffffffffffffffff1681526020019081526020015f20905060018081111561095b5761095a612187565b5b815f015f9054906101000a900460ff16600181111561097d5761097c612187565b5b146109bd576040517f08c379a00000000000000000000000000000000000000000000000000000000081526004016109b49061242d565b60405180910390fd5b5f816002015411610a03576040517f08c379a00000000000000000000000000000000000000000000000000000000081526004016109fa90612495565b60405180910390fd5b8060020154341015610a4a576040517f08c379a0000000000000000000000000000000000000000000000000000000008152600401610a41906124fd565b60405180910390fd5b5f6007548260020154610a5d9190612575565b9050610a693382611965565b610a73338261179c565b3373ffffffffffffffffffffffffffffffffffffffff167fa53d5ff8d58d253ff04700d46f9bf75189228ee0d4afdfba61f91b1352e8d47a8360020154604051610abd9190612004565b60405180910390a23373ffffffffffffffffffffffffffffffffffffffff167ffd38818f5291bf0bb3a2a48aadc06ba8757865d1dabd804585338aab3009dcb682604051610b0b9190612004565b60405180910390a25f82600201819055505050565b610b2861181b565b5f8111610b6a576040517f08c379a0000000000000000000000000000000000000000000000000000000008152600401610b61906125ef565b60405180910390fd5b806006819055507f159e83f4712ba2552e68be9d848e49bf6dd35c24f19564ffd523b6549450a2f481604051610ba09190612657565b60405180910390a150565b610bb361181b565b5f60085f8473ffffffffffffffffffffffffffffffffffffffff1673ffffffffffffffffffffffffffffffffffffffff1681526020019081526020015f2090505f6001811115610c0657610c05612187565b5b815f015f9054906101000a900460ff166001811115610c2857610c27612187565b5b1480610c665750600180811115610c4257610c41612187565b5b815f015f9054906101000a900460ff166001811115610c6457610c63612187565b5b145b610ca5576040517f08c379a0000000000000000000000000000000000000000000000000000000008152600401610c9c906126cd565b60405180910390fd5b81816003015f828254610cb891906126eb565b925050819055508273ffffffffffffffffffffffffffffffffffffffff167fdd782d2f8e5531f9897fbabb36e0bfe19f4f45078f36eb5c9659cb8710cebd2683604051610d059190612004565b60405180910390a2610d178383611965565b8273ffffffffffffffffffffffffffffffffffffffff167f0d3ecba324ef5a283bcbd5d1a966cab18661432ab3575740c588f7a0144b0dfa83604051610d5d9190612004565b60405180910390a2505050565b5f60055f9054906101000a900473ffffffffffffffffffffffffffffffffffffffff16905090565b5f60085f3373ffffffffffffffffffffffffffffffffffffffff1673ffffffffffffffffffffffffffffffffffffffff1681526020019081526020015f2090505f6001811115610de557610de4612187565b5b815f015f9054906101000a900460ff166001811115610e0757610e06612187565b5b1480610e455750600180811115610e2157610e20612187565b5b815f015f9054906101000a900460ff166001811115610e4357610e42612187565b5b145b610e84576040517f08c379a0000000000000000000000000000000000000000000000000000000008152600401610e7b906126cd565b60405180910390fd5b5f7f000000000000000000000000000000000000000000000000000000000000000073ffffffffffffffffffffffffffffffffffffffff16638ddeb7566040518163ffffffff1660e01b8152600401602060405180830381865afa158015610eee573d5f803e3d5ffd5b505050506040513d601f19601f82011682018060405250810190610f129190612732565b905080826001015f828254610f2791906126eb565b925050819055505f6001811115610f4157610f40612187565b5b825f015f9054906101000a900460ff166001811115610f6357610f62612187565b5b03610fc557610f72338261179c565b3373ffffffffffffffffffffffffffffffffffffffff167ffd38818f5291bf0bb3a2a48aadc06ba8757865d1dabd804585338aab3009dcb682604051610fb89190612004565b60405180910390a2611040565b5f60075482610fd4919061275d565b905080836002015f828254610fe991906126eb565b925050819055503373ffffffffffffffffffffffffffffffffffffffff167f72813640d033572bca1120c8060cba752e6b9d99943e1b91632a1eeb1f830eb8826040516110369190612004565b60405180910390a2505b3373ffffffffffffffffffffffffffffffffffffffff167fdc1506c4a683f395a914df41638f926ef5e0d5c9ea4ad625ee58730db34b273e826040516110869190612004565b60405180910390a25050565b6060600480546110a1906123b3565b80601f01602080910402602001604051908101604052809291908181526020018280546110cd906123b3565b80156111185780601f106110ef57610100808354040283529160200191611118565b820191905f5260205f20905b8154815290600101906020018083116110fb57829003601f168201915b5050505050905090565b60065481565b6008602052805f5260405f205f91509050805f015f9054906101000a900460ff16908060010154908060020154908060030154905084565b5f8061116a611600565b90506111778185856116ac565b600191505092915050565b61118a611dcc565b60085f8373ffffffffffffffffffffffffffffffffffffffff1673ffffffffffffffffffffffffffffffffffffffff1681526020019081526020015f206040518060800160405290815f82015f9054906101000a900460ff1660018111156111f5576111f4612187565b5b600181111561120757611206612187565b5b815260200160018201548152602001600282015481526020016003820154815250509050919050565b5f60085f3373ffffffffffffffffffffffffffffffffffffffff1673ffffffffffffffffffffffffffffffffffffffff1681526020019081526020015f2090505f600181111561128357611282612187565b5b600181111561129557611294612187565b5b815f015f9054906101000a900460ff1660018111156112b7576112b6612187565b5b1480156112c757505f8160010154145b15611345575f815f015f6101000a81548160ff021916908360018111156112f1576112f0612187565b5b02179055503373ffffffffffffffffffffffffffffffffffffffff167f8e18574f8a7333e6a87112742a55853a643e2f0550f4e1a3a2c3f1bb2994441d5f60405161133c919061236d565b60405180910390a25b5f600181111561135857611357612187565b5b815f015f9054906101000a900460ff16600181111561137a57611379612187565b5b146113ba576040517f08c379a00000000000000000000000000000000000000000000000000000000081526004016113b1906127e8565b60405180910390fd5b5f34116113fc576040517f08c379a00000000000000000000000000000000000000000000000000000000081526004016113f390612850565b60405180910390fd5b5f6006543461140b9190612575565b90506114173382611965565b3373ffffffffffffffffffffffffffffffffffffffff167f745f661b8143944fb883f50694ebed3a871e43c451d9d4bf4648a9d551d7e47a8260405161145d9190612004565b60405180910390a25050565b60075481565b5f60015f8473ffffffffffffffffffffffffffffffffffffffff1673ffffffffffffffffffffffffffffffffffffffff1681526020019081526020015f205f8373ffffffffffffffffffffffffffffffffffffffff1673ffffffffffffffffffffffffffffffffffffffff1681526020019081526020015f2054905092915050565b6114f961181b565b5f811161153b576040517f08c379a0000000000000000000000000000000000000000000000000000000008152600401611532906125ef565b60405180910390fd5b806007819055507f159e83f4712ba2552e68be9d848e49bf6dd35c24f19564ffd523b6549450a2f48160405161157191906128b8565b60405180910390a150565b61158461181b565b5f73ffffffffffffffffffffffffffffffffffffffff168173ffffffffffffffffffffffffffffffffffffffff16036115f4575f6040517f1e4fbdf70000000000000000000000000000000000000000000000000000000081526004016115eb919061216e565b60405180910390fd5b6115fd816118a2565b50565b5f33905090565b61161483838360016119e4565b505050565b5f611624848461146f565b90507fffffffffffffffffffffffffffffffffffffffffffffffffffffffffffffffff8110156116a65781811015611697578281836040517ffb8f41b200000000000000000000000000000000000000000000000000000000815260040161168e939291906128e4565b60405180910390fd5b6116a584848484035f6119e4565b5b50505050565b5f73ffffffffffffffffffffffffffffffffffffffff168373ffffffffffffffffffffffffffffffffffffffff160361171c575f6040517f96c6fd1e000000000000000000000000000000000000000000000000000000008152600401611713919061216e565b60405180910390fd5b5f73ffffffffffffffffffffffffffffffffffffffff168273ffffffffffffffffffffffffffffffffffffffff160361178c575f6040517fec442f05000000000000000000000000000000000000000000000000000000008152600401611783919061216e565b60405180910390fd5b611797838383611bb3565b505050565b5f73ffffffffffffffffffffffffffffffffffffffff168273ffffffffffffffffffffffffffffffffffffffff160361180c575f6040517f96c6fd1e000000000000000000000000000000000000000000000000000000008152600401611803919061216e565b60405180910390fd5b611817825f83611bb3565b5050565b611823611600565b73ffffffffffffffffffffffffffffffffffffffff16611841610d6a565b73ffffffffffffffffffffffffffffffffffffffff16146118a057611864611600565b6040517f118cdaa7000000000000000000000000000000000000000000000000000000008152600401611897919061216e565b60405180910390fd5b565b5f60055f9054906101000a900473ffffffffffffffffffffffffffffffffffffffff1690508160055f6101000a81548173ffffffffffffffffffffffffffffffffffffffff021916908373ffffffffffffffffffffffffffffffffffffffff1602179055508173ffffffffffffffffffffffffffffffffffffffff168173ffffffffffffffffffffffffffffffffffffffff167f8be0079c531659141344cd1fd0a4f28419497f9722a3daafe3b4186f6b6457e060405160405180910390a35050565b5f73ffffffffffffffffffffffffffffffffffffffff168273ffffffffffffffffffffffffffffffffffffffff16036119d5575f6040517fec442f050000000000000000000000000000000000000000000000000000000081526004016119cc919061216e565b60405180910390fd5b6119e05f8383611bb3565b5050565b5f73ffffffffffffffffffffffffffffffffffffffff168473ffffffffffffffffffffffffffffffffffffffff1603611a54575f6040517fe602df05000000000000000000000000000000000000000000000000000000008152600401611a4b919061216e565b60405180910390fd5b5f73ffffffffffffffffffffffffffffffffffffffff168373ffffffffffffffffffffffffffffffffffffffff1603611ac4575f6040517f94280d62000000000000000000000000000000000000000000000000000000008152600401611abb919061216e565b60405180910390fd5b8160015f8673ffffffffffffffffffffffffffffffffffffffff1673ffffffffffffffffffffffffffffffffffffffff1681526020019081526020015f205f8573ffffffffffffffffffffffffffffffffffffffff1673ffffffffffffffffffffffffffffffffffffffff1681526020019081526020015f20819055508015611bad578273ffffffffffffffffffffffffffffffffffffffff168473ffffffffffffffffffffffffffffffffffffffff167f8c5be1e5ebec7d5bd14f71427d1e84f3dd0314c0f7b2291e5b200ac8c7c3b92584604051611ba49190612004565b60405180910390a35b50505050565b5f73ffffffffffffffffffffffffffffffffffffffff168373ffffffffffffffffffffffffffffffffffffffff1603611c03578060025f828254611bf791906126eb565b92505081905550611cd1565b5f805f8573ffffffffffffffffffffffffffffffffffffffff1673ffffffffffffffffffffffffffffffffffffffff1681526020019081526020015f2054905081811015611c8c578381836040517fe450d38c000000000000000000000000000000000000000000000000000000008152600401611c83939291906128e4565b60405180910390fd5b8181035f808673ffffffffffffffffffffffffffffffffffffffff1673ffffffffffffffffffffffffffffffffffffffff1681526020019081526020015f2081905550505b5f73ffffffffffffffffffffffffffffffffffffffff168273ffffffffffffffffffffffffffffffffffffffff1603611d18578060025f8282540392505081905550611d62565b805f808473ffffffffffffffffffffffffffffffffffffffff1673ffffffffffffffffffffffffffffffffffffffff1681526020019081526020015f205f82825401925050819055505b8173ffffffffffffffffffffffffffffffffffffffff168373ffffffffffffffffffffffffffffffffffffffff167fddf252ad1be2c89b69c2b068fc378daa952ba7f163c4a11628f55a4df523b3ef83604051611dbf9190612004565b60405180910390a3505050565b60405180608001604052805f6001811115611dea57611de9612187565b5b81526020015f81526020015f81526020015f81525090565b5f80fd5b5f60ff82169050919050565b611e1b81611e06565b8114611e25575f80fd5b50565b5f81359050611e3681611e12565b92915050565b5f60208284031215611e5157611e50611e02565b5b5f611e5e84828501611e28565b91505092915050565b5f81519050919050565b5f82825260208201905092915050565b8281835e5f83830152505050565b5f601f19601f8301169050919050565b5f611ea982611e67565b611eb38185611e71565b9350611ec3818560208601611e81565b611ecc81611e8f565b840191505092915050565b5f6020820190508181035f830152611eef8184611e9f565b905092915050565b5f73ffffffffffffffffffffffffffffffffffffffff82169050919050565b5f611f2082611ef7565b9050919050565b611f3081611f16565b8114611f3a575f80fd5b50565b5f81359050611f4b81611f27565b92915050565b5f819050919050565b611f6381611f51565b8114611f6d575f80fd5b50565b5f81359050611f7e81611f5a565b92915050565b5f8060408385031215611f9a57611f99611e02565b5b5f611fa785828601611f3d565b9250506020611fb885828601611f70565b9150509250929050565b5f8115159050919050565b611fd681611fc2565b82525050565b5f602082019050611fef5f830184611fcd565b92915050565b611ffe81611f51565b82525050565b5f6020820190506120175f830184611ff5565b92915050565b5f805f6060848603121561203457612033611e02565b5b5f61204186828701611f3d565b935050602061205286828701611f3d565b925050604061206386828701611f70565b9150509250925092565b61207681611e06565b82525050565b5f60208201905061208f5f83018461206d565b92915050565b5f602082840312156120aa576120a9611e02565b5b5f6120b784828501611f70565b91505092915050565b5f819050919050565b5f6120e36120de6120d984611ef7565b6120c0565b611ef7565b9050919050565b5f6120f4826120c9565b9050919050565b5f612105826120ea565b9050919050565b612115816120fb565b82525050565b5f60208201905061212e5f83018461210c565b92915050565b5f6020828403121561214957612148611e02565b5b5f61215684828501611f3d565b91505092915050565b61216881611f16565b82525050565b5f6020820190506121815f83018461215f565b92915050565b7f4e487b71000000000000000000000000000000000000000000000000000000005f52602160045260245ffd5b600281106121c5576121c4612187565b5b50565b5f8190506121d5826121b4565b919050565b5f6121e4826121c8565b9050919050565b6121f4816121da565b82525050565b5f60808201905061220d5f8301876121eb565b61221a6020830186611ff5565b6122276040830185611ff5565b6122346060830184611ff5565b95945050505050565b612246816121da565b82525050565b61225581611f51565b82525050565b608082015f82015161226f5f85018261223d565b506020820151612282602085018261224c565b506040820151612295604085018261224c565b5060608201516122a8606085018261224c565b50505050565b5f6080820190506122c15f83018461225b565b92915050565b5f80604083850312156122dd576122dc611e02565b5b5f6122ea85828601611f3d565b92505060206122fb85828601611f3d565b9150509250929050565b7f626164206d6f64656c00000000000000000000000000000000000000000000005f82015250565b5f612339600983611e71565b915061234482612305565b602082019050919050565b5f6020820190508181035f8301526123668161232d565b9050919050565b5f6020820190506123805f8301846121eb565b92915050565b7f4e487b71000000000000000000000000000000000000000000000000000000005f52602260045260245ffd5b5f60028204905060018216806123ca57607f821691505b6020821081036123dd576123dc612386565b5b50919050565b7f6e6f7420706f73747061696400000000000000000000000000000000000000005f82015250565b5f612417600c83611e71565b9150612422826123e3565b602082019050919050565b5f6020820190508181035f8301526124448161240b565b9050919050565b7f6e6f2062696c6c000000000000000000000000000000000000000000000000005f82015250565b5f61247f600783611e71565b915061248a8261244b565b602082019050919050565b5f6020820190508181035f8301526124ac81612473565b9050919050565b7f6e6f7420656e6f756768206574680000000000000000000000000000000000005f82015250565b5f6124e7600e83611e71565b91506124f2826124b3565b602082019050919050565b5f6020820190508181035f830152612514816124db565b9050919050565b7f4e487b71000000000000000000000000000000000000000000000000000000005f52601260045260245ffd5b7f4e487b71000000000000000000000000000000000000000000000000000000005f52601160045260245ffd5b5f61257f82611f51565b915061258a83611f51565b92508261259a5761259961251b565b5b828204905092915050565b7f70726963652030000000000000000000000000000000000000000000000000005f82015250565b5f6125d9600783611e71565b91506125e4826125a5565b602082019050919050565b5f6020820190508181035f830152612606816125cd565b9050919050565b7f66697865640000000000000000000000000000000000000000000000000000005f82015250565b5f612641600583611e71565b915061264c8261260d565b602082019050919050565b5f6040820190508181035f83015261266e81612635565b905061267d6020830184611ff5565b92915050565b7f6e6f7420726567000000000000000000000000000000000000000000000000005f82015250565b5f6126b7600783611e71565b91506126c282612683565b602082019050919050565b5f6020820190508181035f8301526126e4816126ab565b9050919050565b5f6126f582611f51565b915061270083611f51565b925082820190508082111561271857612717612548565b5b92915050565b5f8151905061272c81611f5a565b92915050565b5f6020828403121561274757612746611e02565b5b5f6127548482850161271e565b91505092915050565b5f61276782611f51565b915061277283611f51565b925082820261278081611f51565b9150828204841483151761279757612796612548565b5b5092915050565b7f6e6f7420707265706169640000000000000000000000000000000000000000005f82015250565b5f6127d2600b83611e71565b91506127dd8261279e565b602082019050919050565b5f6020820190508181035f8301526127ff816127c6565b9050919050565b7f7a65726f206574680000000000000000000000000000000000000000000000005f82015250565b5f61283a600883611e71565b915061284582612806565b602082019050919050565b5f6020820190508181035f8301526128678161282e565b9050919050565b7f666c756374756174696e670000000000000000000000000000000000000000005f82015250565b5f6128a2600b83611e71565b91506128ad8261286e565b602082019050919050565b5f6040820190508181035f8301526128cf81612896565b90506128de6020830184611ff5565b92915050565b5f6060820190506128f75f83018661215f565b6129046020830185611ff5565b6129116040830184611ff5565b94935050505056fea2646970667358221220e9150beac6589fcb91d1d09ee83a0a708b8d2552787aa51ce31110206be7b05464736f6c634300081a0033","linkReferences":{}},"methodIdentifiers":{"allowance(address,address)":"dd62ed3e","approve(address,uint256)":"095ea7b3","balanceOf(address)":"70a08231","burn(uint256)":"42966c68","burnFrom(address,uint256)":"79cc6790","buyTokens()":"d0febe4c","decimals()":"313ce567","energySimulator()":"629e7f3a","fixedPricePerKWH()":"a590ddf3","fluctuatingPricePerKWH()":"d919d1d7","getUserDetails(address)":"cc3d967b","name()":"06fdde03","owner()":"8da5cb5b","payBill()":"7a781658","registerUser(uint8)":"02b8c8cd","renounceOwnership()":"715018a6","rewardTokens(address,uint256)":"81a4af15","setFixedPricePerKWH(uint256)":"7d9a65b5","setFluctuatingPricePerKWH(uint256)":"e89753b0","simulateConsumption()":"8ddeb756","symbol()":"95d89b41","totalSupply()":"18160ddd","transfer(address,uint256)":"a9059cbb","transferFrom(address,address,uint256)":"23b872dd","transferOwnership(address)":"f2fde38b","users(address)":"a87430ba"},"id":28}