{"abi":[{"type":"constructor","inputs":[{"name":"tokenAddr","type":"address","internalType":"address"}],"stateMutability":"nonpayable"},{"type":"function","name":"buy","inputs":[{"name":"id","type":"uint256","internalType":"uint256"},{"name":"qty","type":"uint256","internalType":"uint256"}],"outputs":[],"stateMutability":"payable"},{"type":"function","name":"createOffer","inputs":[{"name":"amount","type":"uint256","internalType":"uint256"},{"name":"pricePerToken","type":"uint256","internalType":"uint256"}],"outputs":[],"stateMutability":"nonpayable"},{"type":"function","name":"getOffers","inputs":[],"outputs":[{"name":"","type":"tuple[]","internalType":"struct P2PMarketplace.Offer[]","components":[{"name":"seller","type":"address","internalType":"address"},{"name":"amount","type":"uint256","internalType":"uint256"},{"name":"pricePerToken","type":"uint256","internalType":"uint256"},{"name":"active","type":"bool","internalType":"bool"}]}],"stateMutability":"view"},{"type":"function","name":"offers","inputs":[{"name":"","type":"uint256","internalType":"uint256"}],"outputs":[{"name":"seller","type":"address","internalType":"address"},{"name":"amount","type":"uint256","internalType":"uint256"},{"name":"pricePerToken","type":"uint256","internalType":"uint256"},{"name":"active","type":"bool","internalType":"bool"}],"stateMutability":"view"},{"type":"function","name":"token","inputs":[],"outputs":[{"name":"","type":"address","internalType":"contract KWHToken"}],"stateMutability":"view"}],"bytecode":{"object":"0x60a060405234801561000f575f80fd5b50604051610f1d380380610f1d833981810160405281019061003191906100c9565b8073ffffffffffffffffffffffffffffffffffffffff1660808173ffffffffffffffffffffffffffffffffffffffff1681525050506100f4565b5f80fd5b5f73ffffffffffffffffffffffffffffffffffffffff82169050919050565b5f6100988261006f565b9050919050565b6100a88161008e565b81146100b2575f80fd5b50565b5f815190506100c38161009f565b92915050565b5f602082840312156100de576100dd61006b565b5b5f6100eb848285016100b5565b91505092915050565b608051610dfc6101215f395f818161012701528181610200015281816105cd01526107160152610dfc5ff3fe608060405260043610610049575f3560e01c80631afed8751461004d5780633ee992ee146100755780638a72ea6a1461009f578063d6febde8146100de578063fc0c546a146100fa575b5f80fd5b348015610058575f80fd5b50610073600480360381019061006e919061076f565b610124565b005b348015610080575f80fd5b5061008961037a565b6040516100969190610910565b60405180910390f35b3480156100aa575f80fd5b506100c560048036038101906100c09190610930565b610457565b6040516100d59493929190610988565b60405180910390f35b6100f860048036038101906100f3919061076f565b6104bc565b005b348015610105575f80fd5b5061010e610714565b60405161011b9190610a26565b60405180910390f35b817f000000000000000000000000000000000000000000000000000000000000000073ffffffffffffffffffffffffffffffffffffffff166370a08231336040518263ffffffff1660e01b815260040161017e9190610a3f565b602060405180830381865afa158015610199573d5f803e3d5ffd5b505050506040513d601f19601f820116820180604052508101906101bd9190610a6c565b10156101fe576040517f08c379a00000000000000000000000000000000000000000000000000000000081526004016101f590610af1565b60405180910390fd5b7f000000000000000000000000000000000000000000000000000000000000000073ffffffffffffffffffffffffffffffffffffffff166323b872dd3330856040518463ffffffff1660e01b815260040161025b93929190610b0f565b6020604051808303815f875af1158015610277573d5f803e3d5ffd5b505050506040513d601f19601f8201168201806040525081019061029b9190610b6e565b505f60405180608001604052803373ffffffffffffffffffffffffffffffffffffffff16815260200184815260200183815260200160011515815250908060018154018082558091505060019003905f5260205f2090600402015f909190919091505f820151815f015f6101000a81548173ffffffffffffffffffffffffffffffffffffffff021916908373ffffffffffffffffffffffffffffffffffffffff16021790555060208201518160010155604082015181600201556060820151816003015f6101000a81548160ff02191690831515021790555050505050565b60605f805480602002602001604051908101604052809291908181526020015f905b8282101561044e578382905f5260205f2090600402016040518060800160405290815f82015f9054906101000a900473ffffffffffffffffffffffffffffffffffffffff1673ffffffffffffffffffffffffffffffffffffffff1673ffffffffffffffffffffffffffffffffffffffff1681526020016001820154815260200160028201548152602001600382015f9054906101000a900460ff1615151515815250508152602001906001019061039c565b50505050905090565b5f8181548110610465575f80fd5b905f5260205f2090600402015f91509050805f015f9054906101000a900473ffffffffffffffffffffffffffffffffffffffff1690806001015490806002015490806003015f9054906101000a900460ff16905084565b5f8083815481106104d0576104cf610b99565b5b905f5260205f2090600402019050806003015f9054906101000a900460ff1661052e576040517f08c379a000000000000000000000000000000000000000000000000000000000815260040161052590610c10565b60405180910390fd5b8060010154821115610575576040517f08c379a000000000000000000000000000000000000000000000000000000000815260040161056c90610c78565b60405180910390fd5b5f8160020154836105869190610cc3565b9050803410156105cb576040517f08c379a00000000000000000000000000000000000000000000000000000000081526004016105c290610d4e565b60405180910390fd5b7f000000000000000000000000000000000000000000000000000000000000000073ffffffffffffffffffffffffffffffffffffffff1663a9059cbb33856040518363ffffffff1660e01b8152600401610626929190610d6c565b6020604051808303815f875af1158015610642573d5f803e3d5ffd5b505050506040513d601f19601f820116820180604052508101906106669190610b6e565b50815f015f9054906101000a900473ffffffffffffffffffffffffffffffffffffffff1673ffffffffffffffffffffffffffffffffffffffff166108fc8290811502906040515f60405180830381858888f193505050501580156106cc573d5f803e3d5ffd5b5082826001015f8282546106e09190610d93565b925050819055505f82600101540361070e575f826003015f6101000a81548160ff0219169083151502179055505b50505050565b7f000000000000000000000000000000000000000000000000000000000000000081565b5f80fd5b5f819050919050565b61074e8161073c565b8114610758575f80fd5b50565b5f8135905061076981610745565b92915050565b5f806040838503121561078557610784610738565b5b5f6107928582860161075b565b92505060206107a38582860161075b565b9150509250929050565b5f81519050919050565b5f82825260208201905092915050565b5f819050602082019050919050565b5f73ffffffffffffffffffffffffffffffffffffffff82169050919050565b5f6107ff826107d6565b9050919050565b61080f816107f5565b82525050565b61081e8161073c565b82525050565b5f8115159050919050565b61083881610824565b82525050565b608082015f8201516108525f850182610806565b5060208201516108656020850182610815565b5060408201516108786040850182610815565b50606082015161088b606085018261082f565b50505050565b5f61089c838361083e565b60808301905092915050565b5f602082019050919050565b5f6108be826107ad565b6108c881856107b7565b93506108d3836107c7565b805f5b838110156109035781516108ea8882610891565b97506108f5836108a8565b9250506001810190506108d6565b5085935050505092915050565b5f6020820190508181035f83015261092881846108b4565b905092915050565b5f6020828403121561094557610944610738565b5b5f6109528482850161075b565b91505092915050565b610964816107f5565b82525050565b6109738161073c565b82525050565b61098281610824565b82525050565b5f60808201905061099b5f83018761095b565b6109a8602083018661096a565b6109b5604083018561096a565b6109c26060830184610979565b95945050505050565b5f819050919050565b5f6109ee6109e96109e4846107d6565b6109cb565b6107d6565b9050919050565b5f6109ff826109d4565b9050919050565b5f610a10826109f5565b9050919050565b610a2081610a06565b82525050565b5f602082019050610a395f830184610a17565b92915050565b5f602082019050610a525f83018461095b565b92915050565b5f81519050610a6681610745565b92915050565b5f60208284031215610a8157610a80610738565b5b5f610a8e84828501610a58565b91505092915050565b5f82825260208201905092915050565b7f696e73756666696369656e742062616c616e63650000000000000000000000005f82015250565b5f610adb601483610a97565b9150610ae682610aa7565b602082019050919050565b5f6020820190508181035f830152610b0881610acf565b9050919050565b5f606082019050610b225f83018661095b565b610b2f602083018561095b565b610b3c604083018461096a565b949350505050565b610b4d81610824565b8114610b57575f80fd5b50565b5f81519050610b6881610b44565b92915050565b5f60208284031215610b8357610b82610738565b5b5f610b9084828501610b5a565b91505092915050565b7f4e487b71000000000000000000000000000000000000000000000000000000005f52603260045260245ffd5b7f696e6163746976650000000000000000000000000000000000000000000000005f82015250565b5f610bfa600883610a97565b9150610c0582610bc6565b602082019050919050565b5f6020820190508181035f830152610c2781610bee565b9050919050565b7f71747920746f6f206269670000000000000000000000000000000000000000005f82015250565b5f610c62600b83610a97565b9150610c6d82610c2e565b602082019050919050565b5f6020820190508181035f830152610c8f81610c56565b9050919050565b7f4e487b71000000000000000000000000000000000000000000000000000000005f52601160045260245ffd5b5f610ccd8261073c565b9150610cd88361073c565b9250828202610ce68161073c565b91508282048414831517610cfd57610cfc610c96565b5b5092915050565b7f6e6f7420656e6f756768204554480000000000000000000000000000000000005f82015250565b5f610d38600e83610a97565b9150610d4382610d04565b602082019050919050565b5f6020820190508181035f830152610d6581610d2c565b9050919050565b5f604082019050610d7f5f83018561095b565b610d8c602083018461096a565b9392505050565b5f610d9d8261073c565b9150610da88361073c565b9250828203905081811115610dc057610dbf610c96565b5b9291505056fea2646970667358221220132fa714e3dc0c3c9acf0dc114ae72fa35490b2b009309e46cc12f66c3f2900f64736f6c634300081a0033","linkReferences":{}},"methodIdentifiers":{"buy(uint256,uint256)":"d6febde8","createOffer(uint256,uint256)":"1afed875","getOffers()":"3ee992ee","offers(uint256)":"8a72ea6a","token()":"fc0c546a"},"id":29}